:0400000081EF00F09C
:1000080040004000400040004000400040004000E8
:1000180040004000400040004000400040004000D8
:1000280040004000400040004000400040004000C8
:100038004000400040004000400040004000A70948
:1000480040004000400040004000400040004000A8
:100058004000400040004000400040004000400098
:10006800810940004000400040004000400040003E
:100078004000400040004000400040004000400078
:100088004000400040004000400040004000400068
:100098004000400040004000400040004000400058
:1000A8004000400040004000400040004000400048
:1000B8004000400040004000400040004000400038
:1000C8004000400040004000400040004000400028
:1000D8004000400040004000400040004000400018
:1000E8004000400040004000400040004000400008
:0E00F8004000400040004000FF003AEF13F0CF
:022600000000D8
:10260400A490B4900150D8B40AEF13F00DEF13F076
:10261400010E0EEF13F0000E016E0150D8B415EF49
:1026240013F017EF13F01DEF13F003011A8F010ECF
:10263400016E22EF13F003011A9FD06A010E026E9D
:10264400A4801100C86A04011169D06AC782089382
:1026540003011A991B511F0B40091B6F1B990F0E85
:102664001B131A9F60EC13F036EF13F081EF00F0A8
:10267400D60EF66E260EF76E000EF86E0900F5C43F
:1026840002F5016A0401080E5D6F000E5E6F000E14
:102694005F6F000124EF13F0B19E7F0E026455EFCB
:1026A40013F057EF13F059EF13F0010E026E02C549
:1026B400D0F4020E0202F350026E1100D68ED69AA6
:1026C400B490A480090E02013F6FD682B19EA18E00
:0326D400120001F0
:020000040030CA
:080000008CFF3FEF9FFFFFFFA3
:01000900FFF7
:00000001FF
